:060000000A128A11FC2F18
:100D600083120313950108000A128A11CB260A1276
:100D70008A110A128A1184270A128A110A30F00095
:100D80000030F1000A128A11EF260A128A11B92ED8
:100D90000A128A1100287130831603138F00FF3066
:100DA0008600FB30870083120313860187018316B8
:100DB0000317890188014E30831203139200F93022
:100DC0008316031392000C308312031397009501CE
:100DD0008C108C1CEC2EED2EE92E8C100800F201EC
:100DE000F301092FF401F5010130F4070318F50AA6
:100DF0000030F507003075027B3003197402031CC4
:100E0000022F032FF42E0130F2070318F30A0030EB
:100E1000F30771087302031D0F2F70087202031C81
:100E2000122F132FF22E080005307006031D1C2F01
:100E30007103031D1C2F1D2F222F7A3083120313E1
:100E40009500832F25307006031D2A2F7103031D83
:100E50002A2F2B2F302F6D30831203139500832FF1
:100E600049307006031D382F7103031D382F392FA9
:100E70003E2F6130831203139500832F5D3070067F
:100E8000031D462F7103031D462F472F4C2F5B3048
:100E9000831203139500832F88307006031D542F8F
:100EA0007103031D542F552F5A2F513083120313F2
:100EB0009500832FB8307006031D622F7103031D48
:100EC000622F632F682F4830831203139500832FFE
:100ED000ED307006031D702F7103031D702F712FED
:100EE000762F4030831203139500832F0B3070064A
:100EF000023003197106031D7E2F7F2F832F3D3093
:100F0000831203139500080083120313061C892F14
:100F10008A2F942F0530F0000130F1000A128A1157
:100F200014270A128A11FB2F861C972F982FA22FA5
:100F30002530F0000130F1000A128A1114270A123C
:100F40008A11FB2F061DA52FA62FB02F4930F000C8
:100F50000130F1000A128A1114270A128A11FB2F9C
:100F6000861DB32FB42FBE2F5D30F0000130F1008D
:100F70000A128A1114270A128A11FB2F061EC12F8A
:100F8000C22FCC2F8830F0000130F1000A128A11F4
:100F900014270A128A11FB2F861ECF2FD02FDA2F8B
:100FA000B830F0000130F1000A128A1114270A1239
:100FB0008A11FB2F061FDD2FDE2FE82FED30F0000A
:100FC0000130F1000A128A1114270A128A11FB2F2C
:100FD000861FEB2FEC2FF62F0B30F0000230F100C4
:100FE0000A128A1114270A128A11FB2F0A128A1177
:100FF000B0260A128A11080083010A128A11B42E3F
:02400E00F52F8C
:00000001FF
